:100000000C9466000C948E000C948E000C948E0060
:100010000C948E000C948E000C948E000C948E0028
:100020000C948E000C948E000C948E000C948E0018
:100030000C948E000C948E000C948E000C948E0008
:100040000C9454020C948E000C948E010C94680154
:100050000C948E000C948E000C948E000C948E00E8
:100060000C948E000C948E00000102030405111202
:10007000131415160A0B0C0D0E0F000000080002D9
:100080000100000304070000000000000000000061
:100090000000250028002B0000000000240027009D
:1000A0002A000404040404040404020202020202FA
:1000B000030303030303010204081020408001022C
:1000C000040810200102040810204C0811241FBE4F
:1000D000CFEFD8E0DEBFCDBF11E0A0E0B1E0ECEBA8
:1000E000FDE102C005900D92AC39B107D9F722E0CD
:1000F000ACE9B1E001C01D92A936B207E1F710E00A
:10010000C6E6D0E004C02197FE010E94C808C536AB
:10011000D107C9F70E9416050C94DC0E0C94000060
:10012000FC01918D828D981761F0828DDF01A80FFF
:10013000B11D5D968C91928D9F5F9F73928F90E021
:1001400008958FEF9FEF0895FC01918D828D981790
:1001500031F0828DE80FF11D858D90E008958FEFCD
:100160009FEF0895FC01918D228D892F90E0805C96
:100170009F4F821B91098F739927089580EB91E01F
:100180000E94B20021E0892B09F420E0822F08951B
:10019000FC01848DDF01A80FB11DA35ABF4F2C9124
:1001A000848D90E001968F739927848FA689B789F3
:1001B0002C93A089B1898C9180648C93938D848DCC
:1001C000981306C00288F389E02D80818F7D80839B
:1001D0000895EF92FF920F931F93CF93DF93EC015B
:1001E00081E0888F9B8D8C8D981305C0E889F989F3
:1001F000808185FD24C0F62E0B8D10E00F5F1F4F10
:100200000F731127E02E8C8DE8120CC00FB607FC7F
:10021000FACFE889F989808185FFF5CFCE010E9468
:10022000C800F1CF8B8DFE01E80FF11DE35AFF4F9F
:10023000F0820B8FEA89FB898081806207C0EE899A
:10024000FF896083E889F98980818064808381E007
:1002500090E0DF91CF911F910F91FF90EF90089563
:10026000CF93DF93EC01888D8823C9F0EA89FB895D
:10027000808185FD05C0A889B9898C9186FD0FC054
:100280000FB607FCF5CF808185FFF2CFA889B98929
:100290008C9185FFEDCFCE010E94C800E7CFDF91A2
:1002A000CF91089580E090E0892B29F00E94BE0054
:1002B00081110C9400000895CF93C82F682F80EB14
:1002C00091E00E94E9008C2FCC0F990BCF910895FB
:1002D0001F920F920FB60F9211242F933F934F93BB
:1002E0005F936F937F938F939F93AF93BF93EF939E
:1002F000FF9380EB91E00E94C800FF91EF91BF91C6
:10030000AF919F918F917F916F915F914F913F91AD
:100310002F910F900FBE0F901F9018951F920F9264
:100320000FB60F9211242F938F939F93EF93FF9308
:10033000E091C001F091C1018081E091C601F0918E
:10034000C70182FD12C090818091C9018F5F8F73B8
:100350002091CA01821751F0E091C901F0E0E05507
:10036000FE4F958F8093C90101C08081FF91EF916D
:100370009F918F912F910F900FBE0F901F90189506
:1003800090E0FC01E658FF4F3491FC01EA54FF4F26
:100390002491FC01EE55FF4FE491EE2309F43BC09C
:1003A000332339F1333091F038F43130A9F0323061
:1003B00001F584B58F7D12C0373091F03830A1F04F
:1003C0003430B9F4809180008F7D03C0809180002B
:1003D0008F77809380000DC084B58F7784BD09C06E
:1003E0008091B0008F7703C08091B0008F7D8093A3
:1003F000B000F0E0EE0FFF1FE257FF4FA591B49160
:100400008FB7F894EC91611103C020952E2301C0A1
:100410002E2B2C938FBF08958E3008F08E5087704E
:10042000806480937C0080917A00806480937A005D
:1004300080917A0086FDFCCF809178002091790030
:1004400090E0922B08953FB7F8948091AC01909181
:10045000AD01A091AE01B091AF0126B5A89B05C03A
:100460002F3F19F00196A11DB11D3FBFBA2FA92F33
:10047000982F8827820F911DA11DB11DBC01CD01B0
:1004800042E0660F771F881F991F4A95D1F708959C
:100490002FB7F8946091A8017091A9018091AA01E9
:1004A0009091AB012FBF08951F920F920FB60F923C
:1004B00011242F933F938F939F93AF93BF9380917A
:1004C000A8019091A901A091AA01B091AB0130912E
:1004D000A70123E0230F2D3720F40196A11DB11DA4
:1004E00005C026E8230F0296A11DB11D2093A70188
:1004F0008093A8019093A901A093AA01B093AB01A6
:100500008091AC019091AD01A091AE01B091AF018D
:100510000196A11DB11D8093AC019093AD01A093F4
:10052000AE01B093AF01BF91AF919F918F913F9179
:100530002F910F900FBE0F901F9018958EBD000049
:100540000DB407FEFDCF8EB508958F929F92AF92A6
:10055000BF92CF92DF92EF92FF920F931F93CF93B0
:10056000DF9300D000D0CDB7DEB7209100013091ED
:1005700001018217930709F4ABC07C0160E0809110
:100580004F020E94C0010E947D040E946D04C701B9
:100590000F2C000CAA0BBB0B89839A83AB83BC8303
:1005A00080E00E94AD048C7F682F626080E00E9432
:1005B0008D0483E592E00197F1F710915302012F2A
:1005C000153008F004E080915502811102C0101B23
:1005D00001C010E080E090E00E945C0480EA0E948C
:1005E0009E02CE0101966C01015030F0F60181911E
:1005F0006F010E949E02F8CF112329F080E00E9433
:100600009E021150F9CF81E090E00E945C0461E00D
:1006100080914F020E94C00187E390E00197F1F7BB
:1006200060E080914F020E94C0010E9448024B018D
:100630005C0180E090E00E945C0488E00E949E02E1
:10064000182F8FEF0E949E0281E090E00E945C04D0
:10065000107369F40E944802DC01CB0188199909E2
:10066000AA09BB09843F9140A105B10510F360E7D9
:1006700087E00E948D04182F86FB882780F98093DD
:100680005402882389F080E090E00E945C0480E6B8
:100690000E949E028FEF0E949E02082F81E090E050
:1006A0000E945C040093560280E00E94AD04682F13
:1006B0006D7F80E00E948D040E947D0415FF04C0C0
:1006C0008BE891E00E94C204F0920101E0920001E7
:1006D0000F900F900F900F90DF91CF911F910F917E
:1006E000FF90EF90DF90CF90BF90AF909F908F9052
:1006F00008958091A2019091A3010697E1F086E010
:100700000E943D0461E086E00E94C00160E087E055
:100710000E94C00185E00E943D0460E085E00E94E7
:10072000C00160E084E00E94C00184E090E090930A
:10073000A3018093A20108958091A2019091A30149
:100740000497E1F086E00E943D0460E086E00E94AC
:10075000C00161E087E00E94C00185E00E943D0485
:1007600061E085E00E94C00161E084E00E94C00178
:1007700083E090E09093A3018093A2010895CF922B
:10078000DF92EF92FF92CF93DF938230910569F071
:100790008330910591F00197F9F48EE00E940C02EC
:1007A0002091A0013091A1010FC08FE00E940C02A6
:1007B00020919E0130919F0107C080E10E940C02B0
:1007C00020919C0130919D01BC01621B730B80E064
:1007D00094E0EC01C21BD30B072E000C880B990B85
:1007E0000E9478096B017C01BE01DD0F880B990B1B
:1007F0000E9478099B01AC01C701B6010E94CE0896
:1008000020E030E048EC52E40E94040A0E944009D3
:10081000CB01DF91CF91FF90EF90DF90CF900895C3
:10082000CF92DF92EF92FF920F931F93CF93DF93BC
:100830006C017A018B01C0E0D0E0CE15DF0589F0B4
:10084000D8016D918D01D601ED91FC910190F0815F
:10085000E02DC6010995892B11F47E0102C0219675
:10086000ECCFC701DF91CF911F910F91FF90EF90D7
:10087000DF90CF9008950E94710A90E0FC01EA5445
:10088000FF4F2491FC01EE55FF4F8491882399F08E
:1008900090E0880F991FFC01E856FF4FA591B49195
:1008A000FC01E257FF4F859194918FB7F894EC913A
:1008B000E22BEC938FBF08959CB59F7D9CBD9CB5AA
:1008C000937F9CBD9CB59C7F9CBD9DB59E7F9DBD2F
:1008D000682F809150020C94C001CF9380E090E08B
:1008E0000E945C0482EE0E949E02C82F81E090E08C
:1008F0000E945C048C2FCF910895CF9380E090E00C
:100900000E945C0481EE0E949E02C82F81E090E06C
:100910000E945C048C2FCF9108951F93CF93DF9397
:100920001F92CDB7DEB7182F80E090E069830E9458
:100930005C04812F8F7180620E949E02182F698152
:10094000862F0E949E0281E090E00E945C04812F2D
:100950000F90DF91CF911F910895CF93C82F80E022
:1009600090E00E945C048C2F8F710E949E028FEF9A
:100970000E949E02C82F81E090E00E945C048C2FB0
:10098000CF910895CF93DF93009779F0FC01019008
:100990000020E9F73197AF01481B590BBC0180EBF0
:1009A00091E00E941004EC0102C0C0E0D0E042E0FF
:1009B00050E068E971E080EB91E00E9410048C0F38
:1009C0009D1FDF91CF910895EF92FF920F931F9398
:1009D000CF93DF9300D0CDB7DEB7082F162F80E07E
:1009E00090E049837A830E945C04802F8F7180623B
:1009F0000E949E02082FE12E7A81F72E4981140F62
:100A00001E1531F0F70181917F010E949E02F8CFFF
:100A100081E090E00E945C04802F0F900F90DF91A6
:100A2000CF911F910F91FF90EF900895CF93DF9397
:100A3000CDB7DEB760970FB6F894DEBF0FBECDBF5F
:100A4000789484B5826084BD84B5816084BD85B5A9
:100A5000826085BD85B5816085BD80916E008160B5
:100A600080936E001092810080918100826080935B
:100A7000810080918100816080938100809180005D
:100A80008160809380008091B10084608093B10088
:100A90008091B00081608093B00080917A00846082
:100AA00080937A0080917A00826080937A008091AE
:100AB0007A00816080937A0080917A0080688093C8
:100AC0007A001092C10084E00E943D0485E00E94FB
:100AD0003D0486E00E943D0487E00E943D04E091D1
:100AE000C001F091C10182E08083E091BC01F091EE
:100AF000BD011082E091BE01F091BF018FEC8083B7
:100B00001092C801E091C401F091C50186E0808394
:100B1000E091C201F091C301808180618083E09106
:100B2000C201F091C301808188608083E091C2019D
:100B3000F091C301808180688083E091C201F091CF
:100B4000C30180818F7D808360E070E08CE591E05F
:100B50000E948C0A80914F020E943D0480915002B5
:100B60000E943D041FB7F8948091A401811124C014
:100B7000ECEAF0E08491E0ECF0E09491E82FF0E012
:100B8000EE0FFF1FE856FF4FA591B491EC91E923BA
:100B900021F461E08AE00E94C0018AE00E943D04E5
:100BA0008CB580618CBD8CB580648CBD8DE00E945D
:100BB0003D048BE00E943D048091A4018F5F8093EF
:100BC000A4011FBF60E080914F020E94C00181E03C
:100BD00090E00E945C040E9423024B015C0195E0BE
:100BE000C92ED12CE12CF12C0E942302DC01CB0177
:100BF00088199909AA09BB09883E9340A105B10546
:100C000058F021E0C21AD108E108F10888EE880EF8
:100C100083E0981EA11CB11CC114D104E104F104AD
:100C200019F76FE484E00E948D0486E00E94AD0411
:100C3000682F666086E00E948D0486E00E94AD0405
:100C400010925102877D182F1062612F86E00E945A
:100C50008D0486E00E94AD04811709F419C2109238
:100C6000510286E00E94AD0410925102182F177DA8
:100C7000612F86E00E948D0486E00E94AD048113FE
:100C80001092510280E00E94AD04682F6C6080E0F9
:100C90000E948D0460E08CE10E948D0460E787E093
:100CA0000E948D046CE485E00E948D040E946D0416
:100CB0000E947D0482ED898780EF8A878B878C87ED
:100CC0008D871E861F86188A45E0BE01675F7F4FAD
:100CD0008AE00E94E40445E0BE01675F7F4F80E147
:100CE0000E94E40460915302613208F060E281E105
:100CF0000E948D0481EE898380EF8A838B838C83AD
:100D00008D831E821F821886E5E7F0E0849145E01E
:100D1000BE016F5F7F4F0E94E404EFE6F0E0849134
:100D2000609153020E948D0482E00E94AD04E9E6C6
:100D3000F0E0E49161E070E001C0660FEA95EAF747
:100D4000682B82E00E948D0480E00E94AD04682F31
:100D5000636080E00E948D0460E787E00E948D045C
:100D600020915702309158024091590250915A02F5
:100D700060915B0270915C0280915D0290915E02D5
:100D8000A0E00E94A80831F045E067E572E08AE043
:100D90000E94E4040E946D040E947D0461E0809141
:100DA0004F020E94C00183E092E00197F1F70AE050
:100DB00010E08EE00E940C026C018FE00E940C0299
:100DC0007C0180E10E940C022091A0013091A101E0
:100DD000A601420F531F5093A1014093A0012091FF
:100DE0009E0130919F01F701E20FF31FF0939F01E5
:100DF000E0939E0120919C0130919D01280F391FA5
:100E000030939D0120939C010150110991F60AE055
:100E100010E0CA01B8010E949408462FF72E609393
:100E2000A0017093A101CF01B8010E949408FB01B9
:100E300060939E01F0939F01C901B8010E9494083C
:100E400060939C0170939D017F936F93FF93EF9349
:100E5000FF924F9388E191E09F938F930E94760ACF
:100E600086E00E943D0460E086E00E94C00160E0F0
:100E700087E00E94C00185E00E943D0460E085E0BB
:100E80000E94C00161E084E00E94C0011092A301B1
:100E90001092A2018DE391E00E94C20488E491E0E7
:100EA0000E94C2040E9448024B015C010FB6F894F4
:100EB000DEBF0FBECDBFC12CD12C760181E090E00A
:100EC0000E94BF038C0182E090E00E94BF0383E098
:100ED00090E00E94BF03D701C60189589341A10940
:100EE000B109873E9340A105B10518F58091A20193
:100EF0009091A301019771F186E00E943D0461E0A9
:100F000086E00E94C00160E087E00E94C00185E0A9
:100F10000E943D0461E085E00E94C00161E084E040
:100F20000E94C00181E090E09093A3018093A20110
:100F300011C081E7C81687E1D806E104F10440F04A
:100F40000E9448024B015C01C12CD12C76010AC0E1
:100F50000E949C030E9448026B017C01C818D908BA
:100F6000EA08FB080C3311050CF4A8CF89E591E0E1
:100F70000E94C20485E6E82E81E0F82E8091A2014D
:100F80009091A301892B09F480C081E090E00E9438
:100F9000BF036C0182E090E00E94BF038C0183E0FC
:100FA00090E00E94BF032DE3C216D104BCF00D33C4
:100FB000110564F0CD971CF085E090E002C084E05C
:100FC00090E00E94A5020E949C035FC0CD971CF098
:100FD00082E090E0F6CF80E090E0F3CF0D33110592
:100FE0002CF0CD97C4F383E090E005C08D339105DC
:100FF0003CF081E090E00E94A5020E94790345C088
:101000009F938F931F930F93DF92CF92FF92EF9254
:101010000E94760A0FB6F894DEBF0FBECDBF809156
:10102000A5019091A601883E93406CF40E9448026D
:1010300020914D0230914E02621B730B7093A601FA
:101040006093A50122C081E090E00E94BF036C0183
:1010500082E090E00E94BF038C0183E090E00E9458
:10106000BF032DE3C216D10444F00D3311052CF05B
:10107000CD971CF086E090E002C087E090E00E94EF
:10108000A5021092A6011092A5010E94520176CFEE
:1010900081E080935202E5CDE0EBF1E01382128211
:1010A00088EE93E0A0E0B0E084839583A683B783C5
:1010B0008CE091E09183808385EC90E09587848734
:1010C00084EC90E09787868780EC90E0918B808B12
:1010D00081EC90E0938B828B82EC90E0958B848BFB
:1010E00086EC90E0978B868B118E128E138E148E69
:1010F000EFE4F2E089E080838AE0818381E082830B
:10110000138280E2848315821682108611861286ED
:10111000138614861586168617860E9448027093D9
:101120004E0260934D02089597FB072E16F400942B
:1011300007D077FD09D00E94B40807FC05D03EF423
:10114000909581959F4F0895709561957F4F089573
:101150000024A7FD00942A173005400550056005BE
:101160007005800590050895AA1BBB1B51E107C0BF
:10117000AA1FBB1FA617B70710F0A61BB70B881F27
:10118000991F5A95A9F780959095BC01CD010895B6
:10119000EE0FFF1F0590F491E02D09940E94E208E4
:1011A0000C94CA090E94C30958F00E94BC0940F07F
:1011B00029F45F3F29F00C94B30951110C94FE09F6
:1011C0000C94B9090E94DB0968F39923B1F3552304
:1011D00091F3951B550BBB27AA276217730784074A
:1011E00038F09F5F5F4F220F331F441FAA1FA9F3E0
:1011F00035D00E2E3AF0E0E832D091505040E695CE
:10120000001CCAF72BD0FE2F29D0660F771F881F2E
:10121000BB1F261737074807AB07B0E809F0BB0B21
:10122000802DBF01FF2793585F4F3AF09E3F510535
:1012300078F00C94B3090C94FE095F3FE4F3983EF8
:10124000D4F3869577956795B795F7959F5FC9F71E
:10125000880F911D9695879597F90895E1E0660F9F
:10126000771F881FBB1F621773078407BA0720F018
:10127000621B730B840BBA0BEE1F88F7E095089581
:101280000E9447096894B1110C94FE0908950E94C8
:10129000E30988F09F5798F0B92F9927B751B0F01C
:1012A000E1F0660F771F881F991F1AF0BA95C9F7EA
:1012B00014C0B13091F00E94FD09B1E008950C9482
:1012C000FD09672F782F8827B85F39F0B93FCCF335
:1012D000869577956795B395D9F73EF49095809567
:1012E000709561957F4F8F4F9F4F0895E89409C087
:1012F00097FB3EF490958095709561957F4F8F4F49
:101300009F4F9923A9F0F92F96E9BB279395F6955E
:10131000879577956795B795F111F8CFFAF4BB0FDC
:1013200011F460FF1BC06F5F7F4F8F4F9F4F16C040
:10133000882311F096E911C0772321F09EE8872FCA
:10134000762F05C0662371F096E8862F70E060E086
:101350002AF09A95660F771F881FDAF7880F9695FF
:10136000879597F9089597F99F6780E870E060E0A6
:1013700008959FEF80EC089500240A94161617062E
:1013800018060906089500240A9412161306140676
:1013900005060895092E0394000C11F4882352F0D9
:1013A000BB0F40F4BF2B11F460FF04C06F5F7F4F91
:1013B0008F4F9F4F089557FD9058440F551F59F078
:1013C0005F3F71F04795880F97FB991F61F09F3F32
:1013D00079F087950895121613061406551FF2CF5B
:1013E0004695F1DF08C0161617061806991FF1CFAB
:1013F00086957105610508940895E894BB276627D2
:101400007727CB0197F908950E94170A0C94CA090F
:101410000E94BC0938F00E94C30920F0952311F006
:101420000C94B3090C94B90911240C94FE090E9480
:10143000DB0970F3959FC1F3950F50E0551F629F34
:10144000F001729FBB27F00DB11D639FAA27F00D1D
:10145000B11DAA1F649F6627B00DA11D661F829F44
:101460002227B00DA11D621F739FB00DA11D621F29
:10147000839FA00D611D221F749F3327A00D611D46
:10148000231F849F600D211D822F762F6A2F112428
:101490009F5750409AF0F1F088234AF0EE0FFF1F5B
:1014A000BB1F661F771F881F91505040A9F79E3FB2
:1014B000510580F00C94B3090C94FE095F3FE4F3EE
:1014C000983ED4F3869577956795B795F795E79508
:1014D0009F5FC1F7FE2B880F911D9695879597F911
:1014E000089581E090E0F8940C94DC0EA0E0B0E068
:1014F000ECE7FAE00C94B50EAE014B5F5F4FFA01DA
:1015000061917191AF0180916102909162020E949C
:10151000D70AE2E00C94D10E0F931F93CF93DF9381
:10152000009731F46115710519F480E090E03AC03C
:101530008B01EC016EE070E081E090E00E94A90C6C
:10154000FC01892B91F380E883830115110571F06B
:101550001387028781E8838380915F029091600204
:10156000892B21F4F0936002E0935F022097C9F089
:10157000D187C0878381826083838091610290914B
:101580006202892B71F4F0936202E0936102809110
:10159000630290916402892B21F4F0936402E0933A
:1015A0006302CF01DF91CF911F910F910895ACE0BD
:1015B000B0E0EDEDFAE00C94A50E7C016B018A0120
:1015C000FC0117821682838181FFBDC1CE01019685
:1015D0004C01F7019381F60193FD859193FF819171
:1015E0006F01882309F4ABC1853239F493FD8591ED
:1015F00093FF81916F01853229F4B70190E00E9439
:101600000F0EE7CF512C312C20E02032A0F48B328A
:1016100069F030F4803259F0833269F420612CC0D3
:101620008D3239F0803339F4216026C02260246085
:1016300023C0286021C027FD27C030ED380F3A3085
:1016400078F426FF06C0FAE05F9E300D1124532E79
:1016500013C08AE0389E300D1124332E20620CC056
:101660008E3221F426FD6BC1206406C08C3611F445
:10167000206802C0883641F4F60193FD859193FFFE
:1016800081916F018111C1CF982F9F7D9554933027
:1016900028F40C5F1F4FFFE3F9830DC0833631F050
:1016A000833771F0833509F05BC022C0F801808177
:1016B00089830E5F1F4F44244394512C540115C05D
:1016C0003801F2E06F0E711CF801A080B18026FF96
:1016D00003C0652D70E002C06FEF7FEFC5012C875E
:1016E0000E94040E2C0183012C852F77222E17C017
:1016F0003801F2E06F0E711CF801A080B18026FF66
:1017000003C0652D70E002C06FEF7FEFC5012C872D
:101710000E94F20D2C012C852068222E830123FCCF
:101720001BC0832D90E048165906B0F4B70180E243
:1017300090E00E940F0E3A94F4CFF50127FC8591BA
:1017400027FE81915F01B70190E00E940F0E3110DA
:101750003A94F1E04F1A51084114510471F7E5C071
:10176000843611F0893639F5F80127FF07C060810A
:101770007181828193810C5F1F4F08C060817181EC
:10178000072E000C880B990B0E5F1F4F2F76722EC1
:1017900097FF09C090958095709561957F4F8F4F09
:1017A0009F4F2068722E2AE030E0A4010E94470E6D
:1017B000A82EA81844C0853729F42F7EB22E2AE01F
:1017C00030E025C0F22FF97FBF2E8F36C1F018F41C
:1017D000883579F0B4C0803719F0883721F0AFC070
:1017E0002F2F2061B22EB4FE0DC08B2D8460B82E39
:1017F00009C024FF0AC09F2F9660B92E06C028E0BA
:1018000030E005C020E130E002C020E132E0F80124
:10181000B7FE07C060817181828193810C5F1F4F89
:1018200006C06081718180E090E00E5F1F4FA401CF
:101830000E94470EA82EA818FB2DFF777F2E76FE5C
:101840000BC0372D3E7FA51450F474FE0AC072FC05
:1018500008C0372D3E7E05C0BA2C372D03C0BA2CE8
:1018600001C0B52C34FF0DC0FE01EA0DF11D8081D1
:10187000803311F4397E09C032FF06C0B394B394AB
:1018800004C0832F867809F0B39433FD13C030FF72
:1018900006C05A2CB31418F4530C5B18B32CB314B1
:1018A00068F4B70180E290E03C870E940F0EB39489
:1018B0003C85F5CFB31410F43B1801C0312C34FF34
:1018C00012C0B70180E390E03C870E940F0E3C8578
:1018D00032FF17C031FD03C088E790E002C088E501
:1018E00090E0B7010CC0832F867859F031FF02C019
:1018F0008BE201C080E237FD8DE2B70190E00E94EB
:101900000F0EA51438F4B70180E390E00E940F0E8B
:101910005A94F7CFAA94F401EA0DF11D8081B70122
:1019200090E00E940F0EA110F5CF332009F451CEA4
:10193000B70180E290E00E940F0E3A94F6CFF701D3
:101940008681978102C08FEF9FEF2C96E2E10C9485
:10195000C10E0F931F93CF93DF93869F8001879FC4
:10196000100D969F100D1124C8010E94C50CEC01AA
:10197000009729F0A80160E070E00E94FD0DCE0103
:10198000DF91CF911F910F910895CF93DF93823014
:10199000910510F482E090E0E0916702F091680216
:1019A00020E030E0C0E0D0E0309711F1408151817B
:1019B00048175907C0F04817590761F4828193818D
:1019C000209719F09B838A832BC0909368028093A1
:1019D000670226C02115310519F04217530718F484
:1019E0009A01BE01DF01EF010280F381E02DDCCF1F
:1019F0002115310509F1281B390B2430310590F4EC
:101A000012968D919C9113976115710521F0FB0140
:101A10009383828304C09093680280936702FD01E0
:101A2000329644C0FD01E20FF31F8193919322503F
:101A300031092D933C933AC02091650230916602A2
:101A4000232B41F42091040130910501309366026B
:101A50002093650220910201309103012115310587
:101A600041F42DB73EB74091060150910701241B68
:101A7000350BE0916502F0916602E217F307A0F4DE
:101A80002E1B3F0B2817390778F0AC014E5F5F4FD4
:101A90002417350748F04E0F5F1F5093660240939E
:101AA00065028193919302C0E0E0F0E0CF01DF9105
:101AB000CF9108950F931F93CF93DF93009709F46D
:101AC0008CC0FC0132971382128200916702109140
:101AD00068020115110581F420813181820F931F65
:101AE00020916502309166022817390779F5F09345
:101AF0006602E093650271C0D80140E050E0AE1785
:101B0000BF0750F412962D913C911397AD0121150A
:101B1000310509F1D901F3CF9D01DA013383228325
:101B200060817181860F971F8217930769F4EC011A
:101B300028813981260F371F2E5F3F4F3183208345
:101B40008A819B8193838283452B29F4F0936802D9
:101B5000E093670242C01396FC93EE931297ED0157
:101B6000499159919E01240F351FE217F30771F433
:101B700080819181840F951F029611969C938E937C
:101B80008281938113969C938E931297E0E0F0E00C
:101B9000D80112968D919C911397009719F0F80136
:101BA0008C01F6CF8D919C9198012E5F3F4F820F53
:101BB000931F20916502309166022817390769F456
:101BC000309729F4109268021092670202C01382C3
:101BD00012821093660200936502DF91CF911F91EC
:101BE0000F910895FC010590615070400110D8F7E5
:101BF000809590958E0F9F1F0895DC0101C06D9315
:101C000041505040E0F70895FC0161507040019050
:101C10000110D8F7809590958E0F9F1F08950F9310
:101C20001F93CF93DF93FB01238121FD03C08FEF2F
:101C30009FEF28C022FF16C046815781248135813D
:101C40004217530744F4A081B1819D012F5F3F4F9C
:101C5000318320838C93268137812F5F3F4F3783D9
:101C6000268310C0EB01092F182F0084F185E02D89
:101C70000995892BE1F68E819F8101969F838E8342
:101C8000812F902FDF91CF911F910F910895FA012D
:101C9000AA27283051F1203181F1E8946F936E7FAB
:101CA0006E5F7F4F8F4F9F4FAF4FB1E03ED0B4E09C
:101CB0003CD0670F781F891F9A1FA11D680F791FDD
:101CC0008A1F911DA11D6A0F711D811D911DA11DEE
:101CD00020D009F468943F912AE0269F11243019FE
:101CE000305D3193DEF6CF010895462F4770405D99
:101CF0004193B3E00FD0C9F7F6CF462F4F70405D48
:101D00004A3318F0495D31FD4052419302D0A9F7A2
:101D1000EACFB4E0A6959795879577956795BA959C
:101D2000C9F700976105710508959B01AC010A2E62
:101D300006945795479537952795BA95C9F7620F39
:101D4000731F841F951FA01D08952F923F924F92DD
:101D50005F926F927F928F929F92AF92BF92CF923B
:101D6000DF92EF92FF920F931F93CF93DF93CDB744
:101D7000DEB7CA1BDB0B0FB6F894DEBF0FBECDBFBC
:101D800009942A88398848885F846E847D848C848D
:101D90009B84AA84B984C884DF80EE80FD800C8196
:101DA0001B81AA81B981CE0FD11D0FB6F894DEBF79
:0C1DB0000FBECDBFED010895F894FFCFE9
:101DBC00FFFF00006902800000000000E900100431
:101DCC00B2009000A400300156616C756573206CF4
:101DDC006566743A202564206D6964646C653A20EC
:101DEC0025642072696768743A2025640053657411
:101DFC00757020446F6E650046696E64696E67206D
:101E0C006C696E652E2E2E2E004C696E6520666FE9
:101E1C00756E64210056616C756573206C65667413
:101E2C003A202564206D6964646C653A2025642031
:101E3C0072696768743A2025640A004D6573736192
:0C1E4C0067652053656E64000D0A0000FD
:00000001FF
