:100000000C9466000C948E000C948E000C948E0060
:100010000C948E000C948E000C948E000C948E0028
:100020000C948E000C948E000C948E000C948E0018
:100030000C948E000C948E000C948E000C948E0008
:100040000C9454020C948E000C948E010C94680154
:100050000C948E000C948E000C948E000C948E00E8
:100060000C948E000C948E00000102030405111202
:10007000131415160A0B0C0D0E0F000000080002D9
:100080000100000304070000000000000000000061
:100090000000250028002B0000000000240027009D
:1000A0002A000404040404040404020202020202FA
:1000B000030303030303010204081020408001022C
:1000C00004081020010204081020000911241FBE9A
:1000D000CFEFD8E0DEBFCDBF12E0A0E0B1E0E4E2B8
:1000E000FFE102C005900D92A232B107D9F722E0DC
:1000F000A2E2B2E001C01D92A13FB207E1F710E019
:10010000C6E6D0E004C02197FE010E947C09C536F6
:10011000D107C9F70E94FF040C94900F0C940000C3
:10012000FC01918D828D981761F0828DDF01A80FFF
:10013000B11D5D968C91928D9F5F9F73928F90E021
:1001400008958FEF9FEF0895FC01918D828D981790
:1001500031F0828DE80FF11D858D90E008958FEFCD
:100160009FEF0895FC01918D228D892F90E0805C96
:100170009F4F821B91098F739927089588E392E01E
:100180000E94B20021E0892B09F420E0822F08951B
:10019000FC01848DDF01A80FB11DA35ABF4F2C9124
:1001A000848D90E001968F739927848FA689B789F3
:1001B0002C93A089B1898C9180648C93938D848DCC
:1001C000981306C00288F389E02D80818F7D80839B
:1001D0000895EF92FF920F931F93CF93DF93EC015B
:1001E00081E0888F9B8D8C8D981305C0E889F989F3
:1001F000808185FD24C0F62E0B8D10E00F5F1F4F10
:100200000F731127E02E8C8DE8120CC00FB607FC7F
:10021000FACFE889F989808185FFF5CFCE010E9468
:10022000C800F1CF8B8DFE01E80FF11DE35AFF4F9F
:10023000F0820B8FEA89FB898081806207C0EE899A
:10024000FF896083E889F98980818064808381E007
:1002500090E0DF91CF911F910F91FF90EF90089563
:10026000CF93DF93EC01888D8823C9F0EA89FB895D
:10027000808185FD05C0A889B9898C9186FD0FC054
:100280000FB607FCF5CF808185FFF2CFA889B98929
:100290008C9185FFEDCFCE010E94C800E7CFDF91A2
:1002A000CF91089580E090E0892B29F00E94BE0054
:1002B00081110C9400000895CF93C82F682F88E314
:1002C00092E00E94E9008C2FCC0F990BCF910895FA
:1002D0001F920F920FB60F9211242F933F934F93BB
:1002E0005F936F937F938F939F93AF93BF93EF939E
:1002F000FF9388E392E00E94C800FF91EF91BF91C5
:10030000AF919F918F917F916F915F914F913F91AD
:100310002F910F900FBE0F901F9018951F920F9264
:100320000FB60F9211242F938F939F93EF93FF9308
:10033000E0914802F09149028081E0914E02F091F3
:100340004F0282FD12C09081809151028F5F8F73A6
:1003500020915202821751F0E0915102F0E0E85CE6
:10036000FD4F958F8093510201C08081FF91EF91E5
:100370009F918F912F910F900FBE0F901F90189506
:1003800090E0FC01E658FF4F3491FC01EA54FF4F26
:100390002491FC01EE55FF4FE491EE2309F43BC09C
:1003A000332339F1333091F038F43130A9F0323061
:1003B00001F584B58F7D12C0373091F03830A1F04F
:1003C0003430B9F4809180008F7D03C0809180002B
:1003D0008F77809380000DC084B58F7784BD09C06E
:1003E0008091B0008F7703C08091B0008F7D8093A3
:1003F000B000F0E0EE0FFF1FE257FF4FA591B49160
:100400008FB7F894EC91611103C020952E2301C0A1
:100410002E2B2C938FBF08958E3008F08E5087704E
:10042000806480937C0080917A00806480937A005D
:1004300080917A0086FDFCCF809178002091790030
:1004400090E0922B08953FB7F894809134029091F8
:100450003502A0913602B091370226B5A89B05C09F
:100460002F3F19F00196A11DB11D3FBFBA2FA92F33
:10047000982F8827820F911DA11DB11DBC01CD01B0
:1004800042E0660F771F881F991F4A95D1F708959C
:100490002FB7F8946091300270913102809132024E
:1004A000909133022FBF08951F920F920FB60F92B3
:1004B00011242F933F938F939F93AF93BF9380917A
:1004C000300290913102A0913202B091330230910A
:1004D0002F0223E0230F2D3720F40196A11DB11D1B
:1004E00005C026E8230F0296A11DB11D20932F02FF
:1004F0008093300290933102A0933202B093330282
:100500008091340290913502A0913602B091370269
:100510000196A11DB11D8093340290933502A093E2
:100520003602B0933702BF91AF919F918F913F9167
:100530002F910F900FBE0F901F9018958EBD000049
:100540000DB407FEFDCF8EB508958F929F92AF92A6
:10055000BF92CF92DF92EF92FF920F931F93CF93B0
:10056000DF9300D000D0CDB7DEB77C0180910001D1
:1005700090910101E816F90609F4B2C060E080919B
:10058000D5020E94C0010E9466040E945604C70161
:100590000F2C000CAA0BBB0B89839A83AB83BC8303
:1005A00080E00E9496048C7F682F626080E00E9449
:1005B000760483E592E00197F1F71091D902012FBB
:1005C000153008F004E08091DB02811102C0101B9D
:1005D00001C010E080E090E00E94450480EA0E94A3
:1005E0009E02CE0101966C01015030F0F60181911E
:1005F0006F010E949E02F8CF112329F080E00E9433
:100600009E021150F9CF81E090E00E94450461E024
:100610008091D5020E94C00187E390E00197F1F735
:1006200060E08091D5020E94C0010E9448024B0107
:100630005C0180E090E00E94450488E00E949E02F8
:10064000182F8FEF0E949E0281E090E00E944504E7
:10065000107369F40E944802DC01CB0188199909E2
:10066000AA09BB09843F9140A105B10510F360E7D9
:1006700087E00E947604182F86FB882780F98093F4
:10068000DA02882389F080E090E00E94450480E649
:100690000E949E028FEF0E949E02082F81E090E050
:1006A0000E9445040093DC0280E00E949604682FBB
:1006B0006D7F80E00E9476040E94660415FF0CC0E6
:1006C000FF92EF928BE092E09F938F930E942A0B10
:1006D0000F900F900F900F90F0920101E0920001A7
:1006E0000F900F900F900F90DF91CF911F910F916E
:1006F000FF90EF90DF90CF90BF90AF909F908F9042
:10070000089580912C0290912D02049751F08BE076
:1007100090E00E94A50283E090E090932D028093E8
:100720002C020895CF92DF92EF92FF92CF93DF9346
:100730008330910519F16CF481309105B9F002977D
:10074000A1F58FE00E940C02209124023091250235
:1007500024C084309105D1F0059739F582E10E94DB
:100760000C02209126023091270217C08EE00E94D1
:100770000C0220912A0230912B020FC080E10E94CE
:100780000C02209128023091290207C081E10E94C9
:100790000C022091220230912302BC01621B730BD8
:1007A00080E094E0EC01C21BD30B072E000C880BF9
:1007B000990B0E942C0A6B017C01BE01DD0F880B96
:1007C000990B0E942C0A9B01AC01C701B6010E9443
:1007D000820920E030E048EC52E40E94B80A0E940E
:1007E000F409CB01DF91CF91FF90EF90DF90CF9094
:1007F0000895CF92DF92EF92FF920F931F93CF93C2
:10080000DF936C017A018B01C0E0D0E0CE15DF05EB
:1008100089F0D8016D918D01D601ED91FC91019087
:10082000F081E02DC6010995892B11F47E0102C0EB
:100830002196ECCFC701DF91CF911F910F91FF90CF
:10084000EF90DF90CF9008950E94250B90E0FC017F
:10085000EA54FF4F2491FC01EE55FF4F8491882309
:1008600099F090E0880F991FFC01E856FF4FA59181
:10087000B491FC01E257FF4F859194918FB7F894A2
:10088000EC91E22BEC938FBF08959CB59F7D9CBDAE
:100890009CB5937F9CBD9CB59C7F9CBD9DB59E7F68
:1008A0009DBD682F8091D6020C94C001CF9380E04B
:1008B00090E00E94450482EE0E949E02C82F81E0D3
:1008C00090E00E9445048C2FCF910895CF9380E053
:1008D00090E00E94450481EE0E949E02C82F81E0B4
:1008E00090E00E9445048C2FCF9108951F93CF93E1
:1008F000DF931F92CDB7DEB7182F80E090E06983B9
:100900000E944504812F8F7180620E949E02182FE1
:100910006981862F0E949E0281E090E00E9445043A
:10092000812F0F90DF91CF911F910895CF93C82F02
:1009300080E090E00E9445048C2F8F710E949E02FF
:100940008FEF0E949E02C82F81E090E00E94450434
:100950008C2FCF910895CF93DF93009779F0FC010E
:1009600001900020E9F73197AF01481B590BBC01FA
:1009700088E392E00E94F903EC0102C0C0E0D0E0FD
:1009800042E050E06FE172E088E392E00E94F903F8
:100990008C0F9D1FDF91CF910895EF92FF920F93DF
:1009A0001F93CF93DF9300D0CDB7DEB7082F162F5C
:1009B00080E090E049837A830E944504802F8F7104
:1009C00080620E949E02082FE12E7A81F72E4981D3
:1009D000140F1E1531F0F70181917F010E949E02D4
:1009E000F8CF81E090E00E944504802F0F900F9097
:1009F000DF91CF911F910F91FF90EF900895CF93CA
:100A0000DF93CDB7DEB760970FB6F894DEBF0FBEA9
:100A1000CDBF789484B5826084BD84B5816084BD87
:100A200085B5826085BD85B5816085BD80916E008C
:100A3000816080936E0010928100809181008260BD
:100A400080938100809181008160809381008091FA
:100A500080008160809380008091B10084608093E9
:100A6000B1008091B00081608093B00080917A00E5
:100A7000846080937A0080917A00826080937A000B
:100A800080917A00816080937A0080917A008068FA
:100A900080937A001092C10084E00E94260485E0D1
:100AA0000E94260486E00E94260487E00E94260415
:100AB000E0914802F091490282E08083E091440293
:100AC000F09145021082E0914602F09147028FECCE
:100AD000808310925002E0914C02F0914D0286E02A
:100AE0008083E0914A02F0914B0280818061808393
:100AF000E0914A02F0914B02808188608083E0910E
:100B00004A02F0914B02808180688083E0914A0222
:100B1000F0914B0280818F7D808360E070E08CE5F6
:100B200091E00E94400B8091D5020E9426048091A2
:100B3000D6020E9426041FB7F89480912E028111DC
:100B400024C0ECEAF0E08491E0ECF0E09491E82F2E
:100B5000F0E0EE0FFF1FE856FF4FA591B491EC9126
:100B6000E92321F461E08AE00E94C0018AE00E944A
:100B700026048CB580618CBD8CB580648CBD8DE005
:100B80000E9426048BE00E94260480912E028F5F33
:100B900080932E021FBF60E08091D5020E94C001A9
:100BA00081E090E00E9445040E9423022B013C0159
:100BB00055E0C52ED12CE12CF12C0E942302DC0142
:100BC000CB0184199509A609B709883E9340A10570
:100BD000B10558F021E0C21AD108E108F10888EE09
:100BE000480E83E0581E611C711CC114D104E1043D
:100BF000F10419F76FE484E00E94760486E00E9415
:100C00009604682F666086E00E94760486E00E9463
:100C100096041092D702877D182F1062612F86E00C
:100C20000E94760486E00E949604811709F4E4C2CB
:100C30001092D70286E00E9496041092D702182FD5
:100C4000177D612F86E00E94760486E00E9496045C
:100C500081131092D70280E00E949604682F6C6086
:100C600080E00E94760460E08CE10E94760460E7F8
:100C700087E00E9476046CE485E00E9476040E947E
:100C800056040E94660482ED898780EF8A878B87ED
:100C90008C878D871E861F86188A45E0BE01675F98
:100CA0007F4F8AE00E94CD0445E0BE01675F7F4F21
:100CB00080E10E94CD046091D902613208F060E2C7
:100CC00081E10E94760481EE898380EF8A838B83A1
:100CD0008C838D831E821F821886E5E7F0E0849165
:100CE00045E0BE016F5F7F4F0E94CD04EFE6F0E06C
:100CF00084916091D9020E94760482E00E94960459
:100D0000E9E6F0E0E49161E070E001C0660FEA9589
:100D1000EAF7682B82E00E94760480E00E94960445
:100D2000682F636080E00E94760460E787E00E949D
:100D300076042091DD023091DE024091DF02509175
:100D4000E0026091E1027091E2028091E3029091F1
:100D5000E402A0E00E945C0931F045E06DED72E034
:100D60008AE00E94CD040E9456040E94660461E05D
:100D70008091D5020E94C00183E092E00197F1F7D3
:100D80004AE0A42EB12C8EE00E940C027C018FE080
:100D90000E940C028C0180E10E940C026C0181E136
:100DA0000E940C024C0182E10E940C0220912A0256
:100DB00030912B02A701420F531F50932B024093F7
:100DC0002A022091280230912902C20ED31ED0920D
:100DD0002902C0922802E0902602F0902702E80E35
:100DE000F91EF0922702E09226028091240290914F
:100DF0002502080F191F1093250200932402E09189
:100E00002202F0912302E80DF91DF0932302E093F2
:100E1000220281E0A81AB10809F0B5CF2AE030E03B
:100E2000CA01B9010E944809462FB72E60932A02D1
:100E300070932B02C601B9010E944809D62EC72E15
:100E40006093280270932902C701B9010E944809E2
:100E5000F62EE72E6093260270932702C801B9018F
:100E60000E944809162F072F6093240270932502D1
:100E7000CF01B9010E9448096093220270932302B6
:100E8000EF92FF927F936F93CF92DF920F931F9316
:100E9000BF924F9388E191E09F938F930E942A0B1A
:100EA00086E00E94260460E086E00E94C00160E0C7
:100EB00087E00E94C00185E00E94260460E085E092
:100EC0000E94C00161E084E00E94C00110922D02E6
:100ED00010922C0288E591E00E94AB0483E691E039
:100EE0000E94AB040E9448022B013C010FB6F8940B
:100EF000DEBF0FBECDBFC12CD12C760134E7A32EAF
:100F000031E0B32E81E090E00E94920382E090E015
:100F10000E9492038C0183E090E00E949203982E3D
:100F2000892E84E090E00E949203382E292E85E0DD
:100F300090E00E9492032F923F928F929F921F9374
:100F40000F93BF92AF920E942A0B0FB6F894DEBFA8
:100F50000FBECDBFD701C60189589341A109B10980
:100F6000873E9340A105B10568F480912C029091D1
:100F70002D020197C1F081E090E090932D028093C3
:100F80002C0211C081E7C81687E1D806E104F104FC
:100F900040F00E9448022B013C01C12CD12C76016B
:100FA0000AC00E9481030E9448026B017C01C418A0
:100FB000D508E608F7080C3311050CF4A3CF80EA36
:100FC00091E00E94AB048CEAA82E81E0B82E90EC50
:100FD000692E91E0792E23ED422E21E0522E81E000
:100FE00090E00E94920383E090E00E94920385E0EB
:100FF00090E00E94920382E090E00E94920384E0DD
:1010000090E00E94920381E090E00E94920382E0CF
:1010100090E00E9492037C0183E090E00E949203A2
:101020006C0184E090E00E9492038C0185E090E0E6
:101030000E949203FF92EF92BF92AF920E942A0BFE
:10104000DF92CF927F926F920E942A0B1F930F9391
:101050005F924F920E942A0B0FB6F894DEBF0FBE2C
:10106000CDBF9DE3E916F10444F10C3311050CF0FA
:10107000C0C02CE3C216D1040CF0BBC080E090E0ED
:101080000E94A5020E94810386E00E94260461E07E
:1010900086E00E94C00161E087E00E94C00185E017
:1010A0000E94260461E085E00E94C00161E084E0C6
:1010B0000E94C00189EE91E035C09CE3E916F1047D
:1010C00009F497C00C331105C4F52DE3C216D10401
:1010D0000CF48FC088E090E00E94A50280912C0261
:1010E00090912D02019731F081E090E090932D02D4
:1010F00080932C0286E00E94260461E086E00E9434
:10110000C00160E087E00E94C00185E00E942604E3
:1011100061E085E00E94C00161E084E00E94C001BE
:1011200084EF91E00E94AB04FF92EF92BF92AF92E6
:101130000E942A0BDF92CF924DC00D3311050CF4A3
:1011400058C09CE3C916D1040CF053C081E090E074
:101150000E94920382E090E00E949203D82EC92E52
:1011600083E090E00E94920381E090E00E94A5025B
:1011700080912C0290912D02069751F08CE090E026
:101180000E94A50284E090E090932D0280932C02AF
:1011900086E00E94260461E086E00E94C00160E0D3
:1011A00087E00E94C00185E00E94260461E085E09E
:1011B0000E94C00160E084E00E94C0018FEF91E0D6
:1011C0000E94AB04FF92EF92BF92AF920E942A0B53
:1011D000CF92DF927F926F920E942A0B1F930F9300
:1011E0005F924F920E942A0B0FB6F894DEBF0FBE9B
:1011F000CDBF0E945201F3CE81E08093D8021ACD78
:10120000E8E3F2E01382128288EE93E0A0E0B0E01F
:1012100084839583A683B7838CE091E09183808358
:1012200085EC90E09587848784EC90E097878687AB
:1012300080EC90E0918B808B81EC90E0938B828BA3
:1012400082EC90E0958B848B86EC90E0978B868B7C
:10125000118E128E138E148EE5EDF2E089E08083FC
:101260008AE0818381E08283138280E28483158215
:1012700016821086118612861386148615861686A7
:1012800017860E9448027093E6026093E502089573
:1012900097FB072E16F4009407D077FD09D00E9423
:1012A000680907FC05D03EF4909581959F4F0895FD
:1012B000709561957F4F08950024A7FD00942A172B
:1012C00030054005500560057005800590050895BE
:1012D000AA1BBB1B51E107C0AA1FBB1FA617B7075C
:1012E00010F0A61BB70B881F991F5A95A9F7809578
:1012F0009095BC01CD010895EE0FFF1F0590F4916C
:10130000E02D09940E9496090C947E0A0E94770AA7
:1013100058F00E94700A40F029F45F3F29F00C94C5
:10132000670A51110C94B20A0C946D0A0E948F0A3C
:1013300068F39923B1F3552391F3951B550BBB2704
:10134000AA2762177307840738F09F5F5F4F220F49
:10135000331F441FAA1FA9F335D00E2E3AF0E0E840
:1013600032D091505040E695001CCAF72BD0FE2F8A
:1013700029D0660F771F881FBB1F2617370748071E
:10138000AB07B0E809F0BB0B802DBF01FF279358D6
:101390005F4F3AF09E3F510578F00C94670A0C9429
:1013A000B20A5F3FE4F3983ED4F38695779567954C
:1013B000B795F7959F5FC9F7880F911D969587950B
:1013C00097F90895E1E0660F771F881FBB1F62172A
:1013D00073078407BA0720F0621B730B840BBA0BE8
:1013E000EE1F88F7E09508950E94FB096894B111FB
:1013F0000C94B20A08950E94970A88F09F5798F0BB
:10140000B92F9927B751B0F0E1F0660F771F881F09
:10141000991F1AF0BA95C9F714C0B13091F00E9423
:10142000B10AB1E008950C94B10A672F782F88278C
:10143000B85F39F0B93FCCF3869577956795B3954A
:10144000D9F73EF490958095709561957F4F8F4FB9
:101450009F4F0895E89409C097FB3EF490958095BE
:10146000709561957F4F8F4F9F4F9923A9F0F92F6A
:1014700096E9BB279395F695879577956795B795E8
:10148000F111F8CFFAF4BB0F11F460FF1BC06F5FCE
:101490007F4F8F4F9F4F16C0882311F096E911C0E0
:1014A000772321F09EE8872F762F05C0662371F001
:1014B00096E8862F70E060E02AF09A95660F771F15
:1014C000881FDAF7880F9695879597F9089597F909
:1014D0009F6780E870E060E008959FEF80EC0895DA
:1014E00000240A9416161706180609060895002403
:1014F0000A9412161306140605060895092E03947D
:10150000000C11F4882352F0BB0F40F4BF2B11F4F0
:1015100060FF04C06F5F7F4F8F4F9F4F089557FD4F
:101520009058440F551F59F05F3F71F04795880F51
:1015300097FB991F61F09F3F79F0879508951216E8
:1015400013061406551FF2CF4695F1DF08C0161694
:1015500017061806991FF1CF869571056105089445
:101560000895E894BB2766277727CB0197F908955C
:101570000E94CB0A0C947E0A0E94700A38F00E94E6
:10158000770A20F0952311F00C94670A0C946D0AE9
:1015900011240C94B20A0E948F0A70F3959FC1F334
:1015A000950F50E0551F629FF001729FBB27F00D11
:1015B000B11D639FAA27F00DB11DAA1F649F662766
:1015C000B00DA11D661F829F2227B00DA11D621FB5
:1015D000739FB00DA11D621F839FA00D611D221F6F
:1015E000749F3327A00D611D231F849F600D211D53
:1015F000822F762F6A2F11249F5750409AF0F1F0D6
:1016000088234AF0EE0FFF1FBB1F661F771F881F3E
:1016100091505040A9F79E3F510580F00C94670A05
:101620000C94B20A5F3FE4F3983ED4F38695779525
:101630006795B795F795E7959F5FC1F7FE2B880FE4
:10164000911D9695879597F9089581E090E0F8941B
:101650000C94900FA0E0B0E0E0E3FBE00C94690F85
:10166000AE014B5F5F4FFA0161917191AF018091C3
:10167000E9029091EA020E948B0BE2E00C94850F44
:101680000F931F93CF93DF93009731F4611571058A
:1016900019F480E090E03AC08B01EC016EE070E05C
:1016A00081E090E00E945D0DFC01892B91F380E8C0
:1016B00083830115110571F01387028781E8838305
:1016C0008091E7029091E802892B21F4F093E802DF
:1016D000E093E7022097C9F0D187C08783818260B9
:1016E00083838091E9029091EA02892B71F4F0934F
:1016F000EA02E093E9028091EB029091EC02892BDF
:1017000021F4F093EC02E093EB02CF01DF91CF9153
:101710001F910F910895ACE0B0E0E1E9FBE00C947B
:10172000590F7C016B018A01FC01178216828381AB
:1017300081FFBDC1CE0101964C01F7019381F601F5
:1017400093FD859193FF81916F01882309F4ABC1CB
:10175000853239F493FD859193FF81916F01853234
:1017600029F4B70190E00E94C30EE7CF512C312C31
:1017700020E02032A0F48B3269F030F4803259F04E
:10178000833269F420612CC08D3239F0803339F412
:10179000216026C02260246023C0286021C027FD6C
:1017A00027C030ED380F3A3078F426FF06C0FAE053
:1017B0005F9E300D1124532E13C08AE0389E300DE9
:1017C0001124332E20620CC08E3221F426FD6BC111
:1017D000206406C08C3611F4206802C0883641F4BB
:1017E000F60193FD859193FF81916F018111C1CF26
:1017F000982F9F7D9554933028F40C5F1F4FFFE383
:10180000F9830DC0833631F0833771F0833509F0E9
:101810005BC022C0F801808189830E5F1F4F442482
:101820004394512C540115C03801F2E06F0E711C25
:10183000F801A080B18026FF03C0652D70E002C0D2
:101840006FEF7FEFC5012C870E94B80E2C0183013A
:101850002C852F77222E17C03801F2E06F0E711CF5
:10186000F801A080B18026FF03C0652D70E002C0A2
:101870006FEF7FEFC5012C870E94A60E2C012C85EF
:101880002068222E830123FC1BC0832D90E0481684
:101890005906B0F4B70180E290E00E94C30E3A947A
:1018A000F4CFF50127FC859127FE81915F01B701F7
:1018B00090E00E94C30E31103A94F1E04F1A5108A3
:1018C0004114510471F7E5C0843611F0893639F5B9
:1018D000F80127FF07C060817181828193810C5FCD
:1018E0001F4F08C060817181072E000C880B990B77
:1018F0000E5F1F4F2F76722E97FF09C0909580952F
:10190000709561957F4F8F4F9F4F2068722E2AE010
:1019100030E0A4010E94FB0EA82EA81844C0853711
:1019200029F42F7EB22E2AE030E025C0F22FF97F75
:10193000BF2E8F36C1F018F4883579F0B4C08037E7
:1019400019F0883721F0AFC02F2F2061B22EB4FEDE
:101950000DC08B2D8460B82E09C024FF0AC09F2FB4
:101960009660B92E06C028E030E005C020E130E0E6
:1019700002C020E132E0F801B7FE07C0608171814A
:10198000828193810C5F1F4F06C06081718180E06E
:1019900090E00E5F1F4FA4010E94FB0EA82EA81816
:1019A000FB2DFF777F2E76FE0BC0372D3E7FA514D3
:1019B00050F474FE0AC072FC08C0372D3E7E05C08C
:1019C000BA2C372D03C0BA2C01C0B52C34FF0DC082
:1019D000FE01EA0DF11D8081803311F4397E09C0CA
:1019E00032FF06C0B394B39404C0832F867809F005
:1019F000B39433FD13C030FF06C05A2CB31418F44F
:101A0000530C5B18B32CB31468F4B70180E290E078
:101A10003C870E94C30EB3943C85F5CFB31410F4F9
:101A20003B1801C0312C34FF12C0B70180E390E0B5
:101A30003C870E94C30E3C8532FF17C031FD03C0B6
:101A400088E790E002C088E590E0B7010CC0832FE2
:101A5000867859F031FF02C08BE201C080E237FD89
:101A60008DE2B70190E00E94C30EA51438F4B701CF
:101A700080E390E00E94C30E5A94F7CFAA94F40139
:101A8000EA0DF11D8081B70190E00E94C30EA11004
:101A9000F5CF332009F451CEB70180E290E00E94E7
:101AA000C30E3A94F6CFF7018681978102C08FEF7B
:101AB0009FEF2C96E2E10C94750F0F931F93CF9339
:101AC000DF93869F8001879F100D969F100D112434
:101AD000C8010E94790DEC01009729F0A80160E08F
:101AE00070E00E94B10ECE01DF91CF911F910F9156
:101AF0000895CF93DF938230910510F482E090E057
:101B0000E091EF02F091F00220E030E0C0E0D0E0A0
:101B1000309711F14081518148175907C0F048179B
:101B2000590761F482819381209719F09B838A83FE
:101B30002BC09093F0028093EF0226C0211531054F
:101B400019F04217530718F49A01BE01DF01EF01A3
:101B50000280F381E02DDCCF2115310509F1281B2E
:101B6000390B2430310590F412968D919C91139786
:101B70006115710521F0FB019383828304C090936A
:101B8000F0028093EF02FD01329644C0FD01E20FA6
:101B9000F31F81939193225031092D933C933AC0C6
:101BA0002091ED023091EE02232B41F420910401AB
:101BB000309105013093EE022093ED022091020155
:101BC000309103012115310541F42DB73EB7409105
:101BD000060150910701241B350BE091ED02F091B5
:101BE000EE02E217F307A0F42E1B3F0B281739076C
:101BF00078F0AC014E5F5F4F2417350748F04E0F69
:101C00005F1F5093EE024093ED028193919302C0C7
:101C1000E0E0F0E0CF01DF91CF9108950F931F93A3
:101C2000CF93DF93009709F48CC0FC0132971382A5
:101C300012820091EF021091F0020115110581F45A
:101C400020813181820F931F2091ED023091EE02AD
:101C50002817390779F5F093EE02E093ED0271C091
:101C6000D80140E050E0AE17BF0750F412962D9116
:101C70003C911397AD012115310509F1D901F3CF3D
:101C80009D01DA013383228360817181860F971F62
:101C90008217930769F4EC0128813981260F371FD9
:101CA0002E5F3F4F318320838A819B819383828380
:101CB000452B29F4F093F002E093EF0242C0139613
:101CC000FC93EE931297ED01499159919E01240FD7
:101CD000351FE217F30771F480819181840F951FFE
:101CE000029611969C938E938281938113969C9376
:101CF0008E931297E0E0F0E0D80112968D919C91BE
:101D00001397009719F0F8018C01F6CF8D919C91F3
:101D100098012E5F3F4F820F931F2091ED0230916B
:101D2000EE022817390769F4309729F41092F0026F
:101D30001092EF0202C0138212821093EE020093FF
:101D4000ED02DF91CF911F910F910895FC01059055
:101D5000615070400110D8F7809590958E0F9F1FAD
:101D60000895DC0101C06D9341505040E0F70895A3
:101D7000FC016150704001900110D8F7809590955A
:101D80008E0F9F1F08950F931F93CF93DF93FB0137
:101D9000238121FD03C08FEF9FEF28C022FF16C0D3
:101DA00046815781248135814217530744F4A0812D
:101DB000B1819D012F5F3F4F318320838C9326811A
:101DC00037812F5F3F4F3783268310C0EB01092FE8
:101DD000182F0084F185E02D0995892BE1F68E817D
:101DE0009F8101969F838E83812F902FDF91CF91CA
:101DF0001F910F910895FA01AA27283051F120313F
:101E000081F1E8946F936E7F6E5F7F4F8F4F9F4F8E
:101E1000AF4FB1E03ED0B4E03CD0670F781F891FD0
:101E20009A1FA11D680F791F8A1F911DA11D6A0F9E
:101E3000711D811D911DA11D20D009F468943F9151
:101E40002AE0269F11243019305D3193DEF6CF0150
:101E50000895462F4770405D4193B3E00FD0C9F716
:101E6000F6CF462F4F70405D4A3318F0495D31FD83
:101E70004052419302D0A9F7EACFB4E0A6959795D6
:101E8000879577956795BA95C9F7009761057105AC
:101E900008959B01AC010A2E0694579547953795F6
:101EA0002795BA95C9F7620F731F841F951FA01D50
:101EB00008952F923F924F925F926F927F928F92EE
:101EC0009F92AF92BF92CF92DF92EF92FF920F93C9
:101ED0001F93CF93DF93CDB7DEB7CA1BDB0B0FB6D3
:101EE000F894DEBF0FBECDBF09942A883988488890
:101EF0005F846E847D848C849B84AA84B984C88426
:101F0000DF80EE80FD800C811B81AA81B981CE0F1C
:101F1000D11D0FB6F894DEBF0FBECDBFED01089501
:041F2000F894FFCF63
:101F2400FFFF0000F102800000000000E900F90357
:101F3400B2009000A400300156616C756573206C8A
:101F44006566743A202564206D6964206C65667446
:101F54003A202564206D6964646C653A2025642008
:101F64006D69642072696768743A20256420726917
:101F74006768743A20256400536574757020446F53
:101F84006E650046696E64696E67206C696E652EC5
:101F94002E2E2E0056616C756573206D69646C6518
:101FA40066743A202564206D6964646C653A202562
:101FB40064206D696472696768743A2025640A0054
:101FC4004C696E6520666F756E6421002056616CE5
:101FD400756573206D69646C6566743A20256400C8
:101FE4002056616C756573206D6964646C653A2074
:101FF4002564002056616C756573206D696472698F
:102004006768743A2025640A004E616172206C6925
:102014006E6B73004E61617220766F72656E004E56
:1020240061617220726563687473004D65737361D6
:1020340067652053656E643A20202564200A000DEC
:022044000A0090
:00000001FF
